:020000040800F2
:10000000A01200208901000803050008FB04000875
:10001000FF040008D3020008A10B00080000000044
:100020000000000000000000000000007907000848
:10003000D702000800000000550700083D0B00082B
:10004000A3010008A3010008A3010008A301000800
:10005000A3010008A3010008A3010008A3010008F0
:10006000A3010008A3010008A3010008A3010008E0
:10007000A3010008A3010008A3010008A3010008D0
:10008000A3010008A3010008A3010008A3010008C0
:10009000A3010008A3010008A3010008A3010008B0
:1000A000A3010008A3010008A3010008A3010008A0
:1000B000A3010008A3010008A3010008A301000890
:1000C000A3010008A3010008A3010008A301000880
:1000D000A3010008A3010008A3010008A301000870
:1000E000A3010008A3010008A301000800F002F822
:1000F00000F03AF80AA090E8000C82448344AAF188
:100100000107DA4501D100F02FF8AFF2090EBAE885
:100110000F0013F0010F18BFFB1A43F0010318473B
:10012000FC1700001C180000103A24BF78C878C1E2
:10013000FAD8520724BF30C830C144BF04680C60ED
:10014000704700000023002400250026103A28BF35
:1001500078C1FBD8520728BF30C148BF0B60704739
:100160001FB51FBD10B510BD00F07AF81146FFF79E
:10017000F7FF00F033FE00F098F803B4FFF7F2FF4A
:1001800003BC00F09FF80000094880470948004779
:10019000FEE7FEE7FEE7FEE7FEE7FEE7FEE7FEE737
:1001A000FEE7FEE704480549054A064B7047000094
:1001B000410B0008ED000008A00C0020A012002058
:1001C000A00E0020A00E00204FF000020429C0F075
:1001D000128010F0030C00F01E80CCF1040CBCF176
:1001E000020F18BF00F8012BA8BF20F8022BA1EBCB
:1001F0000C0100F010B85FEAC17C24BF00F8012BAD
:1002000000F8012B48BF00F8012B7047704770477A
:1002100070474FF0000200B51346944696462039C9
:1002200022BFA0E80C50A0E80C50B1F12001BFF4AF
:10023000F7AF090728BFA0E80C5048BF0CC05DF815
:1002400004EB890028BF40F8042B08BF704748BF63
:1002500020F8022B11F0804F18BF00F8012B7047D7
:10026000754600F02BF8AE4605006946534620F06F
:100270000700854618B020B5FFF794FFBDE8204081
:100280004FF000064FF000074FF000084FF0000B52
:1002900021F00701AC46ACE8C009ACE8C009ACE805
:1002A000C009ACE8C0098D46704710B50446AFF3ED
:1002B00000802046BDE81040FFF75FBF0048704750
:1002C000400C002001491820ABBEFEE726000200CA
:1002D000704700BFFEE7704700B5034603E04FF4E8
:1002E0007A7000F005F8181EA3F10103F7D100BDE4
:1002F00000EBC001C9004FF0E02251610021916183
:100300000521116100BF4FF0E021096901F480313E
:100310000029F8D004214FF0E0221161704700005D
:100320002DE9F8478046894617464FF0000A002419
:1003300025E000251FE0002619E0385D203812492D
:1003400001EB001208232946304600F0BCF8824633
:10035000BAF1010F09D109EBC40108B22B463246AC
:100360004146CDF800A000F0FDFA701CC6B2082E80
:10037000E3DB681CC5B2102DDDDB601CC4B2385D48
:100380000028D6D1BDE8F887EC0D00082DE9F04132
:10039000024600250026002000230024002791F8B3
:1003A00003C00CF00F0591F803C00CF0100CBCF169
:1003B000000F03D091F802C04CEA050591F800C087
:1003C000BCF1000F31D0146800202BE04FF0010C7D
:1003D0000CFA00F3B1F800C00CEA03069E4220D1EB
:1003E00083004FF00F0C0CFA03F7BC4305FA03FC33
:1003F0004CEA040491F803C0BCF1280F06D14FF079
:10040000010C0CFA00FCC2F814C00AE091F803C019
:10041000BCF1480F05D14FF0010C0CFA00FCC2F8FA
:1004200010C0401C0828D1D31460B1F800C0BCF142
:10043000FF0F34DD546800202EE000F1080C4FF06F
:10044000010808FA0CF3B1F800C00CEA03069E425A
:1004500021D183004FF00F0C0CFA03F7BC4305FACF
:1004600003FC4CEA040491F803C0BCF1280F05D149
:1004700000F1080C08FA0CF8C2F8148091F803C0D7
:10048000BCF1480F07D100F1080C4FF0010808FA41
:100490000CF8C2F81080401C0828CED35460BDE888
:1004A000F0810246002093680B400BB1012000E070
:1004B0000020704741617047016170470AB10161D6
:1004C00000E041617047F0B5044615460846CE1776
:1004D00001EB5676F61006FB03463544CE1701EBCA
:1004E0005676F610A1EBC6072E783E4106F00106BF
:1004F0000EB10120F0BD0020FCE700BFFEE700BF09
:10050000FEE7704710B57F2300220721104600F058
:10051000F6F8002404E0002000F0E1F8601C84B24A
:10052000B4F5806FF7DB10BD08B50121082000F09D
:1005300013F914208DF8030003208DF802004020E9
:10054000ADF8000069460A48FFF720FF8020ADF8AB
:10055000000069460648FFF719FF01228021044880
:10056000FFF7ACFF012240210148FFF7A7FF08BDBC
:10057000000C014070B50546002413E080202041A6
:1005800000EA050240210E48FFF798FF0122802172
:100590000B48FFF793FF002280210948FFF78EFFE9
:1005A000601CC4B2082CE9DB012280210448FFF75B
:1005B00085FF002280210248FFF780FF70BD000008
:1005C000000C014010B5012240210948FFF776FFD9
:1005D000012280210648FFF771FF002240210448D4
:1005E000FFF76CFF002280210148FFF767FF10BD75
:1005F000000C014010B5002240210748FFF75EFFC4
:10060000012280210448FFF759FF012240210248BE
:10061000FFF754FF10BD0000000C014010B5FFF7BC
:1006200083FFAE2000F04BF8202000F048F80020B7
:1006300000F045F8D52000F042F8F02000F03FF837
:10064000A82000F03CF83F2000F039F8D32000F05B
:1006500036F8002000F033F8402000F030F8A120F8
:1006600000F02DF8C82000F02AF8DA2000F027F872
:10067000122000F024F8812000F021F8CF2000F0B3
:100680001EF8D92000F01BF8F12000F018F8DB204C
:1006900000F015F8302000F012F8A42000F00FF858
:1006A000A62000F00CF88D2000F009F8142000F0CE
:1006B00006F8AF2000F003F8FFF724FF10BD10B5D7
:1006C0000446FFF77FFF7820FFF754FF0020FFF775
:1006D00051FF2046FFF74EFFFFF78CFF10BD10B50E
:1006E0000446FFF76FFF7820FFF744FF4020FFF735
:1006F00041FF2046FFF73EFFFFF77CFF10BD2DE9CD
:10070000F04107460C4615461E462220FFF7D7FF4C
:100710003846FFF7D4FF2046FFF7D1FF2120FFF72F
:10072000CEFF2846FFF7CBFF3046FFF7C8FFBDE8F6
:10073000F081000070B5064D002404E0285DFFF74D
:10074000CEFF601C84B2B4F5806FF7DB70BD000093
:10075000400000207047000029B1064A9269024318
:10076000044B9A6104E0034A92698243014B9A6107
:100770007047000000100240704700002DE9FF4F55
:1007800083B081468A4693464FF0000800200290CD
:1007900001900026002760E00D2F1FD007DC6FB10D
:1007A000012F0FD0022F11D0032F27D112E00E2FCF
:1007B00018D00F2F1AD0102F20D11BE00420804614
:1007C00002901FE00320804602901BE0022080463A
:1007D000029017E001208046029013E0012080463D
:1007E00002900FE00220804602900BE0032080463A
:1007F000029007E004208046029003E0002080463B
:10080000029000BF00BF00BF1FE0514A12884A4457
:100810003A4411B20AEB080210B280234D4AFFF7A6
:1008200052FE0190012101988143019101980090AD
:1008300047480088484401B23B464246504600F0D3
:1008400091F808F1010000F0FF08434801680298A0
:10085000081A4045D9DC781CC7B2069887429BDB52
:100860005C46109805013D480068844216DD3B480F
:100870000068201A032190FBF1F0401CC6B2102E34
:1008800000DD1026354800683044344908600846C9
:10089000006884421CDC0846046019E02F480068A8
:1008A000844215DA2D480068001B032190FBF1F00B
:1008B000401CC6B2102E00DD102628480068801BA0
:1008C0002649086008460068A04201DC084604602A
:1008D00023480068854216DD21480068281A032154
:1008E00090FBF1F0401CC6B2082E00DD08261C4823
:1008F000006830441A4908600846006885421CDCDC
:100900000846056019E016480068854215DA144863
:100910000068401B032190FBF1F0401CC6B2082E7A
:1009200000DD08260E480068801B0D490860084657
:100930000068A84201DC08460560084800680649CE
:100940000860074800680249086007B0BDE8F08FFA
:100950003800002040000020340000202C0000203F
:10096000300000202DE9F041069EBEB38418802C93
:100970006CDACC18402C69DA8418002C66DDCC18AF
:10098000002C63DDCC18E71704EB5777FF10DFF876
:10099000C0C00CEBC71700EB020C17F80C70CD1899
:1009A0004FEAE57C05EB5C7C4FEAEC0CA5EBCC0850
:1009B0004FF0010C0CFA08FC47EA0C07CC184FEA80
:1009C000E47C04EB5C7C4FEAEC0CDFF8848008EB01
:1009D000CC1C00EB02080CF8087037E0FFE7841825
:1009E000802C33DACC18402C30DA8418002C2DDD22
:1009F000CC18002C2ADDCC18E71704EB5777FF1032
:100A0000DFF84CC00CEBC71700EB020C17F80C70AA
:100A1000CD184FEAE57C05EB5C7C4FEAEC0CA5EBCE
:100A2000CC084FF0010C0CFA08FC27EA0C07CC1894
:100A30004FEAE47C04EB5C7C4FEAEC0CDFF81080BE
:100A400008EBCC1C00EB02080CF80870BDE8F08144
:100A50004000002010B500F001F810BD0CB50020DA
:100A6000019000903348006840F4803031490860BC
:100A700000BF3048006800F4003000900198401C2E
:100A80000190009818B90198B0F5A06FF1D12948EC
:100A9000006800F4003010B10120009001E0002057
:100AA00000900098012843D12348006840F01000CE
:100AB000214908600846006820F0030008600846E5
:100AC000006840F0020008601A4840681949486010
:100AD0000846406848600846406840F480604860C6
:100AE0000846406820F47C1048600846406840F49E
:100AF000E81048600846006840F08070086000BF59
:100B00000C48006800F000700028F9D009484068DF
:100B100020F00300074948600846406840F00200A2
:100B2000486000BF0348406800F00C000828F9D175
:100B30000CBD000000100240002002407047000081
:100B400010B51348006840F00100114908600846DC
:100B50004068104908400E494860084600680E4940
:100B600008400B4908600846006820F480200860AF
:100B70000846406820F4FE0048604FF41F0088607B
:100B8000FFF768FF4FF000600449086010BD0000E7
:100B9000001002400000FFF8FFFFF6FE08ED00E045
:100BA00000BFFEE7F8B5002500264FF480615F48DE
:100BB000FFF70AFB02215E4800F0C8F838BB5D4829
:100BC000007802280CDD5C48B0F9000010F1040F39
:100BD00006DD59480088401E00B25749088000E0F1
:100BE00000BF54480078032805DA52480078401CBA
:100BF0005049087000E000BF50480078072805DA27
:100C00004E480078401C4D49087027E026E004213A
:100C1000474800F09BF8F8B94748B0F900000028B1
:100C200006DA45480088401C00B2434908800AE0C3
:100C300040480078002805DD3E480078401E3D49C8
:100C4000087000E000BF3D480078002805DD3B4803
:100C50000078401E3949087000E000BF364800881F
:100C6000000104B23648B0F90000844219DD34486E
:100C7000B0F90000201A032190FBF1F0401CC6B22D
:100C8000082E00DD08262E480088304400B22C498A
:100C900008800846B0F90000844220DC0846048041
:100CA0001DE02748B0F90000844218DA2448B0F962
:100CB0000000001B032190FBF1F0401CC6B2082E7F
:100CC00000DD08261E480088801B00B21C490880F1
:100CD0000846B0F90000A04201DC0846048018482C
:100CE000B0F90050002710E015F1100F08DD402D7D
:100CF00006DA144850F8272004212846FFF710FB95
:100D000005F1100005B2781CC7B2082FECDB0948CA
:100D1000007800900C4809490978425C10230021B2
:100D20000846FFF72BFDFFF705FDF8BD400000204A
:100D300000080140280000202A000020290000208F
:100D40003C000020000000202000002070B5054677
:100D50000E4631462846FFF7A4FB98B910210B48F0
:100D6000FFF7A8FB1420FFF7B7FA10210748FFF799
:100D7000A3FB00BF31462846FFF793FB0028F9D0BC
:100D8000002400E00124204670BD0000000801405E
:100D900008B501210420FFF7DFFC48208DF803008F
:100DA0000E20ADF8000003208DF8020069460A48C5
:100DB000FFF7ECFA10208DF80300ADF800000320D7
:100DC0008DF8020069460448FFF7E0FA1021024856
:100DD000FFF772FB08BD000000080140FFF7D8FFD5
:100DE000FFF71CFC01E0FFF7DDFEFCE70000000060
:100DF000000000000000000000000000000070F88B
:100E0000F87000000000000D0D00000000383800F0
:100E10000038380000000000000000000020F8F852
:100E200020F8F82000020F0F020F0F02003078CEDA
:100E30008E18100000040C38390F0600183C24BC32
:100E4000D86030000006030D1E121E0C00B0F848DA
:100E50007830000000070F0809070F09000000386C
:100E60003800000000000000000000000000C0F09A
:100E7000380800000000071F382000000000083874
:100E8000F0C00000000020381F0700000080A0E034
:100E9000C0E0A0800000020301030200008080E0A7
:100EA000E08080000000000303000000000000005C
:100EB000000000000000002C3C1C0000008080802E
:100EC00080808000000000000000000000000000A2
:100ED000000000000000000C0C0C0000000000806E
:100EE000E078180000181E07010000000000F0F86C
:100EF0000868F8F00000070F0B080F0700202030EB
:100F0000F8F80000000000000F0F00000030380863
:100F100088F87000000C0E0B0908080000303888B3
:100F200088F8700000060E08080F07000000F8F8A7
:100F300000E0E00000030302020F0F0200F8F8884F
:100F400088880800000808080C07030000C0E07843
:100F500058C8800000070F08080F0700000808881D
:100F6000E878180000000E0F010000000070F8C8BB
:100F700088F8700000070F08090F070000F0F80854
:100F800008F8F0000000090D0F03010000000060E8
:100F9000606000000000000C0C0C0000000000600D
:100FA000606000000000002C3C1C00000080C0605D
:100FB0003018080000000103060C08000040404003
:100FC000404040000001010101010100000818300B
:100FD00060C0800000080C06030100000030388863
:100FE000C87830000000000D0D000000F0F80888FF
:100FF000C848F8F0070F08090B0A0B0B00E0F018BF
:1010000018F0E000000F0F01010F0F0000F8F88842
:1010100088F87000000F0F08080F070000F0F808AC
:101020000838300000070F08080E060000F8F8081E
:1010300018F0E000000F0F080C07030000F8F88814
:1010400088880800000F0F080808080000F8F888D2
:1010500088880800000F0F000000000000F0F8086A
:101060000838300000070F08090F0F0000F8F8805B
:1010700080F8F800000F0F00000F0F00000008F8C4
:10108000F80800000000080F0F0800000000000032
:1010900000F8F80000060E08080F070000F8F880B6
:1010A000E0781800000F0F00030F0C0000F8F800A4
:1010B00000000000000F0F080808080000F8F820E2
:1010C000C020F8F8000F0F0001000F0F00F8F860C3
:1010D000C080F8F8000F0F0000010F0F00F0F808B3
:1010E00008F8F00000070F08080F070000F8F8885C
:1010F00088F87000000F0F000000000000F0F808F2
:1011000008F8F00000070F08183F270000F8F888DB
:1011100088F87000000F0F00010F0E00003078C833
:101120008818100000040C08090F0600000808F8D1
:10113000F80808000000000F0F00000000F8F80099
:1011400000F8F80000070F08080F070000F8F80083
:1011500000F8F8000003070C0C07030000F8F80083
:10116000C000F8F800010F0E010E0F01001838E062
:10117000C0381800000E0F00010F0E000078F88034
:1011800080F878000000000F0F00000000080888B9
:10119000C8783800000E0F09080808000000F8F8A9
:1011A0000808000000007F7F40400000001878E041
:1011B0008000000000000001071E18000000080861
:1011C000F8F80000000040407F7F000000080C0697
:1011D000060C0800000000000000000000000000F5
:1011E00000000000404040404040404000000206F7
:1011F0000E08000000000000000000000000202099
:1012000020E0C00000060F09090F0F0000F8F820C9
:1012100020E0C000000F0F08080F070000C0E0200A
:101220002060400000070F08080C040000C0E02008
:1012300020F8F80000070F08080F0F0000C0E0209A
:1012400020E0C00000070F09090901000080F0F844
:101250008888880000000F0F0000000000C0E02018
:1012600020E0E00000474F48487F3F0000F8F820AA
:1012700020E0C000000F0F00000F0F00002020EC46
:10128000EC0000000008080F0F08080000002020F4
:10129000ECEC0000004040407F3F000000F8F80008
:1012A00080E06000000F0F01030E0C00000808F83A
:1012B000F80000000008080F0F08080000E0E02018
:1012C000E020E0C0000F0F0007000F0F00E0E0205B
:1012D00020E0C000000F0F00000F0F0000C0E02052
:1012E00020E0C00000070F08080F070000E0E02022
:1012F00020E0C000007F7F08080F070000C0E0204A
:1013000020E0E00000070F08087F7F0000E0E08099
:1013100040606000000F0F000000000000C0E020EF
:101320002020200000080909090F06000020F8F815
:10133000202020000000070F0808080000E0E0005F
:1013400000E0E00000070F08080F0F0000E0E000D9
:1013500000E0E0000003070C0C07030000E0E000E1
:10136000C000E0E000030F0C030C0F030060E080FE
:1013700080E06000000C0E03030E0C0000E0E000B3
:1013800000E0E00040474F68381F070000202020A1
:10139000A0E06000000C0E0B09080800000080F0BF
:1013A000780800000001031E3C200000000000F847
:1013B000F80000000000007F7F00000000000878B7
:1013C000F08000000000203C1E03010030180818C7
:1013D0003020301800000000000000000000000075
:1013E000003E5B4F5B3E3E6B4F6B3E1C3E7C3E1CAB
:1013F000183C7E3C181C577D571C1C5E7F5E1C00F1
:10140000183C1800FFE7C3E7FF0018241800FFE7A7
:10141000DBE7FF30483A060E2629792926407F056A
:101420000507407F05253F5A3CE73C5A7F3E1C1C80
:1014300008081C1C3E7F14227F22145F5F005F5F40
:1014400006097F017F006689956A6060606060942C
:10145000A2FFA29408047E040810207E2010080831
:101460002A1C08081C2A08081E101010100C1E0C3C
:101470001E0C30383E3830060E3E0E0600000000CE
:101480000000005F00000007000700147F147F14B5
:10149000242A7F2A122313086462364956205000FA
:1014A00008070300001C2241000041221C002A1CE6
:1014B0007F1C2A08083E08080080703000080808D1
:1014C0000808000060600020100804023E514945F1
:1014D0003E00427F400072494949462141494D330F
:1014E0001814127F1027454545393C4A4949314176
:1014F000211109073649494936464949291E000044
:101500001400000040340000000814224114141498
:101510001414004122140802015909063E415D5984
:101520004E7C1211127C7F494949363E414141228D
:101530007F4141413E7F494949417F090909013EB7
:10154000414151737F0808087F00417F41002040DE
:10155000413F017F081422417F404040407F021CF0
:10156000027F7F0408107F3E4141413E7F09090907
:10157000063E4151215E7F091929462649494932D3
:1015800003017F01033F4040403F1F2040201F3F99
:101590004038403F6314081463030478040361591E
:1015A000494D43007F414141020408102000414160
:1015B000417F04020102044040404040000307080C
:1015C0000020545478407F28444438384444442808
:1015D000384444287F385454541800087E090218AF
:1015E000A4A49C787F0804047800447D4000204037
:1015F000403D007F1028440000417F40007C04787B
:1016000004787C080404783844444438FC182424C2
:101610001818242418FC7C08040408485454542442
:1016200004043F44243C4040207C1C2040201C3CBF
:101630004030403C44281028444C9090907C4464B6
:10164000544C440008364100000077000000413649
:10165000080002010204023C2623263C1EA1A161CF
:10166000123A4040207A3854545559215555794101
:101670002154547841215554784020545579400CD8
:101680001E527212395555555939545454593955B9
:101690005454580000457C410002457D42000145FC
:1016A0007C40F0292429F0F0282528F07C54554569
:1016B000002054547C547C0A097F493249494932FC
:1016C0003248484832324A4848303A4141217A3A11
:1016D00042402078009DA0A07D39444444393D40DB
:1016E00040403D3C24FF2424487E4943662B2FFC88
:1016F0002F2BFF0929F620C0887E09032054547936
:10170000410000447D413048484A32384040227A06
:10171000007A0A0A727D0D19317D2629292F282683
:101720002929292630484D4020380808080808088B
:101730000808382F10C8ACBA2F102834FA00007BE4
:10174000000008142A142222142A140895002200EA
:1017500095AA005500AAAA55AA55AA000000FF00A4
:10176000101010FF00141414FF001010FF00FF10E1
:1017700010F010F0141414FC001414F700FF000013
:10178000FF00FF1414F404FC141417101F10101F92
:10179000101F1414141F00101010F0000000001F80
:1017A000101010101F10101010F010000000FF108B
:1017B0001010101010101010FF10000000FF140087
:1017C00000FF00FF00001F10170000FC04F41414B9
:1017D0001710171414F404F40000FF00F714141485
:1017E00014141414F700F7141414171410101F1005
:1017F0001F141414F4141010F010F000001F101F28
:101800000000001F14000000FC140000F010F01095
:1018100010FF10FF141414FF141010101F0000000C
:1018200000F010FFFFFFFFFFF0F0F0F0F0FFFFFF10
:101830000000000000FFFF0F0F0F0F0F3844443867
:10184000447C2A2A3E147E02020606027E027E02A2
:1018500063554941633844443C04407E201E2006C1
:10186000027E020299A5E7A5991C2A492A1C4C72FE
:1018700001724C304A4D4D303048784830BC625A85
:10188000463D3E494949007E0101017E2A2A2A2A15
:101890002A44445F444440514A444040444A5140F1
:1018A0000000FF0103E080FF000008086B6B0836B2
:1018B00012362436060F090F060000181800000023
:1018C0001010003040FF0101001F01011E00191D12
:1018D0001712003C3C3C3C00000000006E623131BD
:1018E000310000006E623200000000006E6233338F
:1018F000330000006E623400000000006E62353577
:10190000350000006E623600000000006E6237375E
:10191000370000006E623800000000003C1900082B
:101920000000002040000000280100087C19000889
:10193000400000206012000044010008DC1800088C
:10194000E4180008EC180008F4180008FC18000857
:10195000041900080C190008141900083020302060
:1019600030203020000000000000000000000000D7
:0C1970000000000000000000000000006B
:04000005080000ED02
:00000001FF
